{
  "contractName": "MockV3Aggregator",
  "abi": [
    {
      "inputs": [
        {
          "internalType": "uint8",
          "name": "_decimals",
          "type": "uint8"
        },
        {
          "internalType": "int256",
          "name": "_initialPrice",
          "type": "int256"
        }
      ],
      "stateMutability": "nonpayable",
      "type": "constructor"
    },
    {
      "inputs": [],
      "name": "decimals",
      "outputs": [
        {
          "internalType": "uint8",
          "name": "",
          "type": "uint8"
        }
      ],
      "stateMutability": "view",
      "type": "function",
      "constant": true
    },
    {
      "inputs": [],
      "name": "latestPrice",
      "outputs": [
        {
          "internalType": "int256",
          "name": "",
          "type": "int256"
        }
      ],
      "stateMutability": "view",
      "type": "function",
      "constant": true
    },
    {
      "inputs": [],
      "name": "latestTimestamp",
      "outputs": [
        {
          "internalType": "uint256",
          "name": "",
          "type": "uint256"
        }
      ],
      "stateMutability": "view",
      "type": "function",
      "constant": true
    },
    {
      "inputs": [],
      "name": "latestRoundData",
      "outputs": [
        {
          "internalType": "uint80",
          "name": "roundId",
          "type": "uint80"
        },
        {
          "internalType": "int256",
          "name": "answer",
          "type": "int256"
        },
        {
          "internalType": "uint256",
          "name": "startedAt",
          "type": "uint256"
        },
        {
          "internalType": "uint256",
          "name": "updatedAt",
          "type": "uint256"
        },
        {
          "internalType": "uint80",
          "name": "answeredInRound",
          "type": "uint80"
        }
      ],
      "stateMutability": "view",
      "type": "function",
      "constant": true
    },
    {
      "inputs": [
        {
          "internalType": "int256",
          "name": "_newPrice",
          "type": "int256"
        }
      ],
      "name": "updatePrice",
      "outputs": [],
      "stateMutability": "nonpayable",
      "type": "function"
    }
  ],
  "bytecode": "0x6080604052348015600e575f5ffd5b506040516101a83803806101a8833981016040819052602b91604a565b5f805460ff191660ff9390931692909217909155600155426002556079565b5f5f60408385031215605a575f5ffd5b825160ff811681146069575f5ffd5b6020939093015192949293505050565b610122806100865f395ff3fe6080604052348015600e575f5ffd5b5060043610604e575f3560e01c8063313ce5671460525780638205bf6a146074578063a3e6ba94146089578063d4c19bda146091578063feaf968c1460a7575b5f5ffd5b5f54605d9060ff1681565b60405160ff90911681526020015b60405180910390f35b607c60025481565b604051908152602001606b565b607c60015481565b60a5609c36600460d6565b60015542600255565b005b6001805460025460408051848152602081019390935282018190526060820152608081019190915260a001606b565b5f6020828403121560e5575f5ffd5b503591905056fea2646970667358221220fb9cb2b98f9b47bd614fe0215820706c653481290e57f0848751c7b9ae855bad64736f6c634300081e0033",
  "immutableReferences": {},
  "source": "// SPDX-License-Identifier: MIT\r\npragma solidity ^0.8.0;\r\n\r\ncontract MockV3Aggregator {\r\n  uint8 public decimals;\r\n  int256 public latestPrice;\r\n  uint256 public latestTimestamp;\r\n\r\n  constructor(uint8 _decimals, int256 _initialPrice) {\r\n    decimals = _decimals;\r\n    latestPrice = _initialPrice;\r\n    latestTimestamp = block.timestamp;\r\n  }\r\n\r\n  function latestRoundData() public view returns (uint80 roundId, int256 answer, uint256 startedAt, uint256 updatedAt, uint80 answeredInRound) {\r\n    return (1, latestPrice, latestTimestamp, latestTimestamp, 1);\r\n  }\r\n\r\n\r\n  function updatePrice(int256 _newPrice) public {\r\n    latestPrice = _newPrice;\r\n    latestTimestamp = block.timestamp;\r\n  }\r\n}\r\n",
  "sourcePath": "C:\\Users\\linun\\Desktop\\phantom\\contracts\\MockV3Aggregator.sol",
  "compiler": {
    "name": "solc",
    "version": "0.8.30+commit.73712a01.Emscripten.clang"
  },
  "schemaVersion": "3.4.16",
  "updatedAt": "2025-05-21T12:46:16.709Z",
  "networkType": "ethereum",
  "devdoc": {
    "kind": "dev",
    "methods": {},
    "version": 1
  },
  "userdoc": {
    "kind": "user",
    "methods": {},
    "version": 1
  }
}