{
  "contractName": "priceFeed",
  "abi": [
    {
      "inputs": [
        {
          "internalType": "address",
          "name": "_priceUSDTMockOne",
          "type": "address"
        },
        {
          "internalType": "address",
          "name": "_priceUSDTMockTwo",
          "type": "address"
        }
      ],
      "stateMutability": "nonpayable",
      "type": "constructor"
    },
    {
      "inputs": [],
      "name": "getUsdtMockOnePrice",
      "outputs": [
        {
          "internalType": "int256",
          "name": "",
          "type": "int256"
        }
      ],
      "stateMutability": "view",
      "type": "function",
      "constant": true
    },
    {
      "inputs": [],
      "name": "getUsdtMockTwoPrice",
      "outputs": [
        {
          "internalType": "int256",
          "name": "",
          "type": "int256"
        }
      ],
      "stateMutability": "view",
      "type": "function",
      "constant": true
    }
  ],
  "bytecode": "0x6080604052348015600e575f5ffd5b50604051610271380380610271833981016040819052602b916074565b5f80546001600160a01b039384166001600160a01b0319918216179091556001805492909316911617905560a0565b80516001600160a01b0381168114606f575f5ffd5b919050565b5f5f604083850312156084575f5ffd5b608b83605a565b9150609760208401605a565b90509250929050565b6101c4806100ad5f395ff3fe608060405234801561000f575f5ffd5b5060043610610034575f3560e01c806377bedfd814610038578063c746537214610052575b5f5ffd5b61004061005a565b60405190815260200160405180910390f35b6100406100d0565b5f805460408051633fabe5a360e21b8152905183926001600160a01b03169163feaf968c9160048083019260a09291908290030181865afa1580156100a1573d5f5f3e3d5ffd5b505050506040513d601f19601f820116820180604052508101906100c59190610140565b509195945050505050565b5f5f60015f9054906101000a90046001600160a01b03166001600160a01b031663feaf968c6040518163ffffffff1660e01b815260040160a060405180830381865afa1580156100a1573d5f5f3e3d5ffd5b805169ffffffffffffffffffff8116811461013b575f5ffd5b919050565b5f5f5f5f5f60a08688031215610154575f5ffd5b61015d86610122565b6020870151604088015160608901519297509095509350915061018260808701610122565b9050929550929590935056fea26469706673582212207907a994638ecd433bafcf4879f089c3a9a86947450a9a7f992546c4d82a9e4e64736f6c634300081e0033",
  "immutableReferences": {},
  "source": "// SPDX-License-Identifier: UNLICENSED\r\n\r\npragma solidity ^0.8.0;\r\n\r\nimport \"@chainlink/contracts/src/v0.8/interfaces/AggregatorV3Interface.sol\";\r\n\r\ncontract priceFeed {\r\n  AggregatorV3Interface internal USDTMockOne;\r\n  AggregatorV3Interface internal USDTMockTwo;\r\n\r\n\r\n  constructor(address _priceUSDTMockOne, address _priceUSDTMockTwo) {\r\n    USDTMockOne = AggregatorV3Interface(_priceUSDTMockOne);\r\n    USDTMockTwo = AggregatorV3Interface(_priceUSDTMockTwo);\r\n  }\r\n\r\n  function getUsdtMockOnePrice() public view returns (int) {\r\n    (, int price, , , ) = USDTMockOne.latestRoundData();\r\n    return price;\r\n  }\r\n\r\n  function getUsdtMockTwoPrice() public view returns (int) {\r\n    (, int price, , , ) = USDTMockTwo.latestRoundData();\r\n    return price;\r\n  }\r\n}\r\n",
  "sourcePath": "C:\\Users\\linun\\Desktop\\phantom\\contracts\\PriceFeed.sol",
  "compiler": {
    "name": "solc",
    "version": "0.8.30+commit.73712a01.Emscripten.clang"
  },
  "schemaVersion": "3.4.16",
  "updatedAt": "2025-05-21T13:27:32.420Z",
  "networkType": "ethereum",
  "devdoc": {
    "kind": "dev",
    "methods": {},
    "version": 1
  },
  "userdoc": {
    "kind": "user",
    "methods": {},
    "version": 1
  }
}